{
  "_format": "hh-sol-artifact-1",
  "contractName": "CipherDEXPool",
  "sourceName": "contracts/CipherDEXPool.sol",
  "abi": [
    {
      "inputs": [
        {
          "internalType": "address",
          "name": "tokenA_",
          "type": "address"
        },
        {
          "internalType": "address",
          "name": "tokenB_",
          "type": "address"
        }
      ],
      "stateMutability": "nonpayable",
      "type": "constructor"
    },
    {
      "inputs": [],
      "name": "PoolAlreadyInitialized",
      "type": "error"
    },
    {
      "inputs": [],
      "name": "PoolNotInitialized",
      "type": "error"
    },
    {
      "inputs": [
        {
          "internalType": "bytes32",
          "name": "handle",
          "type": "bytes32"
        },
        {
          "internalType": "address",
          "name": "sender",
          "type": "address"
        }
      ],
      "name": "SenderNotAllowedToUseHandle",
      "type": "error"
    },
    {
      "inputs": [],
      "name": "SnapshotTooSmall",
      "type": "error"
    },
    {
      "inputs": [],
      "name": "ZamaProtocolUnsupported",
      "type": "error"
    },
    {
      "inputs": [],
      "name": "ZeroAmount",
      "type": "error"
    },
    {
      "anonymous": false,
      "inputs": [
        {
          "indexed": true,
          "internalType": "address",
          "name": "provider",
          "type": "address"
        },
        {
          "indexed": false,
          "internalType": "uint256",
          "name": "timestamp",
          "type": "uint256"
        }
      ],
      "name": "LiquidityAdded",
      "type": "event"
    },
    {
      "anonymous": false,
      "inputs": [
        {
          "indexed": true,
          "internalType": "address",
          "name": "provider",
          "type": "address"
        },
        {
          "indexed": false,
          "internalType": "uint256",
          "name": "timestamp",
          "type": "uint256"
        }
      ],
      "name": "LiquidityRemoved",
      "type": "event"
    },
    {
      "anonymous": false,
      "inputs": [
        {
          "indexed": false,
          "internalType": "uint64",
          "name": "snapshotA",
          "type": "uint64"
        },
        {
          "indexed": false,
          "internalType": "uint64",
          "name": "snapshotB",
          "type": "uint64"
        }
      ],
      "name": "SnapshotUpdated",
      "type": "event"
    },
    {
      "anonymous": false,
      "inputs": [
        {
          "indexed": true,
          "internalType": "address",
          "name": "trader",
          "type": "address"
        },
        {
          "indexed": false,
          "internalType": "bool",
          "name": "aToB",
          "type": "bool"
        },
        {
          "indexed": false,
          "internalType": "uint256",
          "name": "timestamp",
          "type": "uint256"
        }
      ],
      "name": "Swap",
      "type": "event"
    },
    {
      "inputs": [],
      "name": "FEE_DENOMINATOR",
      "outputs": [
        {
          "internalType": "uint64",
          "name": "",
          "type": "uint64"
        }
      ],
      "stateMutability": "view",
      "type": "function"
    },
    {
      "inputs": [],
      "name": "FEE_NUMERATOR",
      "outputs": [
        {
          "internalType": "uint64",
          "name": "",
          "type": "uint64"
        }
      ],
      "stateMutability": "view",
      "type": "function"
    },
    {
      "inputs": [],
      "name": "MINIMUM_LIQUIDITY",
      "outputs": [
        {
          "internalType": "uint64",
          "name": "",
          "type": "uint64"
        }
      ],
      "stateMutability": "view",
      "type": "function"
    },
    {
      "inputs": [
        {
          "internalType": "externalEuint64",
          "name": "encAmountA",
          "type": "bytes32"
        },
        {
          "internalType": "bytes",
          "name": "proofA",
          "type": "bytes"
        },
        {
          "internalType": "externalEuint64",
          "name": "encAmountB",
          "type": "bytes32"
        },
        {
          "internalType": "bytes",
          "name": "proofB",
          "type": "bytes"
        }
      ],
      "name": "addLiquidity",
      "outputs": [],
      "stateMutability": "nonpayable",
      "type": "function"
    },
    {
      "inputs": [],
      "name": "confidentialProtocolId",
      "outputs": [
        {
          "internalType": "uint256",
          "name": "",
          "type": "uint256"
        }
      ],
      "stateMutability": "view",
      "type": "function"
    },
    {
      "inputs": [
        {
          "internalType": "address",
          "name": "user",
          "type": "address"
        }
      ],
      "name": "getShares",
      "outputs": [
        {
          "internalType": "euint64",
          "name": "",
          "type": "bytes32"
        }
      ],
      "stateMutability": "view",
      "type": "function"
    },
    {
      "inputs": [
        {
          "internalType": "uint64",
          "name": "amountA",
          "type": "uint64"
        },
        {
          "internalType": "uint64",
          "name": "amountB",
          "type": "uint64"
        }
      ],
      "name": "initializePool",
      "outputs": [],
      "stateMutability": "nonpayable",
      "type": "function"
    },
    {
      "inputs": [],
      "name": "initialized",
      "outputs": [
        {
          "internalType": "bool",
          "name": "",
          "type": "bool"
        }
      ],
      "stateMutability": "view",
      "type": "function"
    },
    {
      "inputs": [
        {
          "internalType": "externalEuint64",
          "name": "encShares",
          "type": "bytes32"
        },
        {
          "internalType": "bytes",
          "name": "proofShares",
          "type": "bytes"
        }
      ],
      "name": "removeLiquidity",
      "outputs": [],
      "stateMutability": "nonpayable",
      "type": "function"
    },
    {
      "inputs": [],
      "name": "reserveSnapshotA",
      "outputs": [
        {
          "internalType": "uint64",
          "name": "",
          "type": "uint64"
        }
      ],
      "stateMutability": "view",
      "type": "function"
    },
    {
      "inputs": [],
      "name": "reserveSnapshotB",
      "outputs": [
        {
          "internalType": "uint64",
          "name": "",
          "type": "uint64"
        }
      ],
      "stateMutability": "view",
      "type": "function"
    },
    {
      "inputs": [
        {
          "internalType": "externalEuint64",
          "name": "encAmountIn",
          "type": "bytes32"
        },
        {
          "internalType": "bytes",
          "name": "proofAmountIn",
          "type": "bytes"
        },
        {
          "internalType": "externalEuint64",
          "name": "encMinAmountOut",
          "type": "bytes32"
        },
        {
          "internalType": "bytes",
          "name": "proofMinOut",
          "type": "bytes"
        },
        {
          "internalType": "bool",
          "name": "aToB",
          "type": "bool"
        }
      ],
      "name": "swap",
      "outputs": [],
      "stateMutability": "nonpayable",
      "type": "function"
    },
    {
      "inputs": [],
      "name": "tokenA",
      "outputs": [
        {
          "internalType": "contract ConfidentialToken",
          "name": "",
          "type": "address"
        }
      ],
      "stateMutability": "view",
      "type": "function"
    },
    {
      "inputs": [],
      "name": "tokenB",
      "outputs": [
        {
          "internalType": "contract ConfidentialToken",
          "name": "",
          "type": "address"
        }
      ],
      "stateMutability": "view",
      "type": "function"
    },
    {
      "inputs": [],
      "name": "totalShares",
      "outputs": [
        {
          "internalType": "uint64",
          "name": "",
          "type": "uint64"
        }
      ],
      "stateMutability": "view",
      "type": "function"
    }
  ],
  "bytecode": "0x60c060405234801561000f575f5ffd5b5060405161236138038061236183398101604081905261002e916102c3565b6100e26100396100f9565b80517f9e7b61f58c47dc699ac88507c4f5bb9f121c03808c5676a8078fe583e464970080546001600160a01b03199081166001600160a01b039384161790915560208301517f9e7b61f58c47dc699ac88507c4f5bb9f121c03808c5676a8078fe583e46497018054831691841691909117905560408301517f9e7b61f58c47dc699ac88507c4f5bb9f121c03808c5676a8078fe583e46497028054909216921691909117905550565b6001600160a01b039182166080521660a0526102f4565b604080516060810182525f808252602082018190529181019190915246600103610192575060408051606080820183525f8083526020808401829052928401528251908101835273ca2e8f1f656cd25c01f05d0b243ab1ecd4a8ffb6815273d82385dada1ae3e969447f20a3164f6213100e75918101919091527377627828a55156b04ac0dc0eb30467f1a552bb039181019190915290565b4662aa36a703610211575060408051606080820183525f8083526020808401829052928401528251908101835273f0ffdc93b7e186bc2f8cb3daa75d86d1930a433d81527392c920834ec8941d2c77d188936e1f7a6f49c1279181019190915273be0e383937d564d7ff0bc3b46c51f0bf8d5c311a9181019190915290565b46617a690361028f575060408051606080820183525f808352602080840182905292840152825190810183527350157cffd6bbfa2dece204a89ec419c23ef5755d815273e3a9105a3a932253a70f126eb1e3b589c643dd249181019190915273901f8942346f7ab3a01f6d7613119bca447bb0309181019190915290565b6040516373cac13b60e01b815260040160405180910390fd5b80516001600160a01b03811681146102be575f5ffd5b919050565b5f5f604083850312156102d4575f5ffd5b6102dd836102a8565b91506102eb602084016102a8565b90509250929050565b60805160a051611fdd6103845f395f81816101c1015281816104ab01528181610578015281816107db015281816108a801528181610b3201528181610c020152818161105b01526110d101525f818160f901528181610480015281816104e7015281816107b00152818161081701528181610b0701528181610b730152818161108101526110ab0152611fdd5ff3fe608060405234801561000f575f5ffd5b50600436106100f0575f3560e01c80635fd4dc0311610093578063ba9a7a5611610063578063ba9a7a5614610234578063c555070a1461023d578063d73792a914610250578063f04da65b14610259575f5ffd5b80635fd4dc03146101e35780636c9b48b8146101f85780638927b0301461020b578063a953515a14610221575f5ffd5b80633f1a3433116100ce5780633f1a34331461018757806341cd47bf146101a15780635446c0e1146101a95780635f64b55b146101bc575f5ffd5b80630fc63d10146100f4578063158ef93e146101385780633a98ef3914610155575b5f5ffd5b61011b7f000000000000000000000000000000000000000000000000000000000000000081565b6040516001600160a01b0390911681526020015b60405180910390f35b6004546101459060ff1681565b604051901515815260200161012f565b60025461016f90600160801b90046001600160401b031681565b6040516001600160401b03909116815260200161012f565b60025461016f90600160401b90046001600160401b031681565b61016f601e81565b60025461016f906001600160401b031681565b61011b7f000000000000000000000000000000000000000000000000000000000000000081565b6101f66101f1366004611bdd565b610281565b005b6101f6610206366004611c78565b610635565b61021361095e565b60405190815260200161012f565b6101f661022f366004611ca9565b61096c565b61016f6103e881565b6101f661024b366004611d00565b610cb4565b61016f61271081565b610213610267366004611d93565b6001600160a01b03165f9081526003602052604090205490565b60045460ff166102a45760405163486aa30760e01b815260040160405180910390fd5b5f6102e48787878080601f0160208091040260200160405190810160405280939291908181526020018383808284375f9201919091525061129592505050565b90505f6103268585858080601f0160208091040260200160405190810160405280939291908181526020018383808284375f9201919091525061129592505050565b90505f6103646103538461034e600260109054906101000a90046001600160401b0316611308565b61131d565b6002546001600160401b031661134b565b90505f6103a461038c8461034e600260109054906101000a90046001600160401b0316611308565b600254600160401b90046001600160401b031661134b565b90505f6103b18383611370565b90505f6103bf82858561139e565b90506103cc5f54876113e7565b5f556001546103db90866113e7565b6001555f546103e990611415565b506103f5600154611415565b50335f9081526003602052604090205461041f57335f908152600360205260409020819055610448565b335f9081526003602052604090205461043890826113e7565b335f908152600360205260409020555b335f9081526003602052604090205461046090611415565b50335f8181526003602052604090205461047991611435565b506104a4867f0000000000000000000000000000000000000000000000000000000000000000611458565b506104cf857f0000000000000000000000000000000000000000000000000000000000000000611458565b5060405163eb3155b560e01b81526001600160a01b037f0000000000000000000000000000000000000000000000000000000000000000169063eb3155b59061052090339030908b90600401611db9565b6020604051808303815f875af115801561053c573d5f5f3e3d5ffd5b505050506040513d601f19601f820116820180604052508101906105609190611ddd565b5060405163eb3155b560e01b81526001600160a01b037f0000000000000000000000000000000000000000000000000000000000000000169063eb3155b5906105b190339030908a90600401611db9565b6020604051808303815f875af11580156105cd573d5f5f3e3d5ffd5b505050506040513d601f19601f820116820180604052508101906105f19190611ddd565b5060405142815233907fc17cea59c2955cb181b03393209566960365771dbba9dc3d510180e7cb3120889060200160405180910390a2505050505050505050505050565b60045460ff161561065957604051637983c05160e01b815260040160405180910390fd5b6001600160401b038216158061067657506001600160401b038116155b1561069457604051631f2a200560e01b815260040160405180910390fd5b6004805460ff191660011790556106aa82611308565b5f556106b581611308565b6001555f546106c390611415565b506106cf600154611415565b50600280546001600160401b03838116600160401b026fffffffffffffffffffffffffffffffff19909216908516171790555f6103e86107176107128486611e08565b611474565b6107219190611e31565b905061072f6103e882611e50565b600260106101000a8154816001600160401b0302191690836001600160401b0316021790555061075e81611308565b335f90815260036020526040902081905561077890611415565b50335f8181526003602052604090205461079191611435565b505f61079c84611308565b90505f6107a884611308565b90506107d4827f0000000000000000000000000000000000000000000000000000000000000000611458565b506107ff817f0000000000000000000000000000000000000000000000000000000000000000611458565b5060405163eb3155b560e01b81526001600160a01b037f0000000000000000000000000000000000000000000000000000000000000000169063eb3155b59061085090339030908790600401611db9565b6020604051808303815f875af115801561086c573d5f5f3e3d5ffd5b505050506040513d601f19601f820116820180604052508101906108909190611ddd565b5060405163eb3155b560e01b81526001600160a01b037f0000000000000000000000000000000000000000000000000000000000000000169063eb3155b5906108e190339030908690600401611db9565b6020604051808303815f875af11580156108fd573d5f5f3e3d5ffd5b505050506040513d601f19601f820116820180604052508101906109219190611ddd565b5060405142815233907fc17cea59c2955cb181b03393209566960365771dbba9dc3d510180e7cb3120889060200160405180910390a25050505050565b5f6109676114ec565b905090565b60045460ff1661098f5760405163486aa30760e01b815260040160405180910390fd5b5f6109cf8484848080601f0160208091040260200160405190810160405280939291908181526020018383808284375f9201919091525061129592505050565b335f90815260036020526040812054919250906109ec9083611520565b90505f610a0282846109fd5f611308565b61139e565b6002549091505f90610a3e90610a2690849061034e906001600160401b0316611308565b600254600160801b90046001600160401b031661134b565b90505f610a66610a268461034e600260089054906101000a90046001600160401b0316611308565b335f90815260036020526040902054909150610a82908461154e565b335f908152600360205260409020819055610a9c90611415565b50335f81815260036020526040902054610ab591611435565b50610ac15f548361154e565b5f55600154610ad0908261154e565b6001555f54610ade90611415565b50610aea600154611415565b50610af58233611435565b50610b008133611435565b50610b2b827f0000000000000000000000000000000000000000000000000000000000000000611458565b50610b56817f0000000000000000000000000000000000000000000000000000000000000000611458565b50604051632df5f6bf60e11b8152336004820152602481018390527f00000000000000000000000000000000000000000000000000000000000000006001600160a01b031690635bebed7e906044016020604051808303815f875af1158015610bc1573d5f5f3e3d5ffd5b505050506040513d601f19601f82011682018060405250810190610be59190611ddd565b50604051632df5f6bf60e11b8152336004820152602481018290527f00000000000000000000000000000000000000000000000000000000000000006001600160a01b031690635bebed7e906044016020604051808303815f875af1158015610c50573d5f5f3e3d5ffd5b505050506040513d601f19601f82011682018060405250810190610c749190611ddd565b5060405142815233907fc2c3f06e49b9f15e7b4af9055e183b0d73362e033ad82a07dec9bf98401717199060200160405180910390a25050505050505050565b60045460ff16610cd75760405163486aa30760e01b815260040160405180910390fd5b5f610d178888888080601f0160208091040260200160405190810160405280939291908181526020018383808284375f9201919091525061129592505050565b90505f610d598686868080601f0160208091040260200160405190810160405280939291908181526020018383808284375f9201919091525061129592505050565b90505f83610d7957600254600160401b90046001600160401b0316610d86565b6002546001600160401b03165b90505f84610d9f576002546001600160401b0316610db3565b600254600160401b90046001600160401b03165b90506001600160401b0382161580610dd257506001600160401b038116155b15610df05760405163a3c6efe360e01b815260040160405180910390fd5b5f85610dfd575f54610e01565b6001545b90505f610e28610e208761034e610e1b601e612710611e31565b611308565b61271061134b565b90505f610e35838361131d565b90505f610e42828761134b565b90505f610e4f8289611520565b90505f610e6082846109fd5f611308565b90505f610e71838c6109fd5f611308565b90508b15610e9b57610e845f54826113e7565b5f55600154610e93908361154e565b600155610eb9565b610ea7600154826113e7565b6001555f54610eb6908361154e565b5f555b610ec35f54611415565b50610ecf600154611415565b508b15610f9657610ee160648a611e6f565b600254610ef791906001600160401b0316611e50565b6002805467ffffffffffffffff19166001600160401b0392909216919091179055610f23606489611e6f565b6002546001600160401b03918216600160401b9091049091161115610f9157610f4d606489611e6f565b600254610f6a9190600160401b90046001600160401b0316611e31565b600260086101000a8154816001600160401b0302191690836001600160401b031602179055505b611053565b610fa160648a611e6f565b600254610fbe9190600160401b90046001600160401b0316611e50565b600280546001600160401b0392909216600160401b026fffffffffffffffff000000000000000019909216919091179055610ffa606489611e6f565b6002546001600160401b03918216911611156110535761101b606489611e6f565b60025461103191906001600160401b0316611e31565b6002805467ffffffffffffffff19166001600160401b03929092169190911790555b5f8c61107f577f00000000000000000000000000000000000000000000000000000000000000006110a1565b7f00000000000000000000000000000000000000000000000000000000000000005b90505f8d6110cf577f00000000000000000000000000000000000000000000000000000000000000006110f1565b7f00000000000000000000000000000000000000000000000000000000000000005b90506110fd8383611458565b506111088482611458565b5060405163eb3155b560e01b81526001600160a01b0383169063eb3155b59061113990339030908890600401611db9565b6020604051808303815f875af1158015611155573d5f5f3e3d5ffd5b505050506040513d601f19601f820116820180604052508101906111799190611ddd565b506111848433611435565b50604051632df5f6bf60e11b8152336004820152602481018590526001600160a01b03821690635bebed7e906044016020604051808303815f875af11580156111cf573d5f5f3e3d5ffd5b505050506040513d601f19601f820116820180604052508101906111f39190611ddd565b50604080518f1515815242602082015233917f34cec70d8773e1f50c2253f45aab7dde4ea61e4c995cc2c11b1dd73f35389b15910160405180910390a2600254604080516001600160401b038084168252600160401b90930490921660208301527f70d780d2b9318a1069191a6a7452e0aa94e87a4b60d149b34fdb77eff55faf3c910160405180910390a15050505050505050505050505050505050505050565b5f81515f146112b1576112aa8383600561157c565b9050611302565b825f8190036112cb576112c35f611308565b915050611302565b6112d58133611676565b6112ff57604051630276b5d960e01b81526004810182905233602482015260440160405180910390fd5b90505b92915050565b5f611302826001600160401b03166005611702565b5f8261132f5761132c5f611308565b92505b816113405761133d5f611308565b91505b6112ff83835f611791565b5f8261135d5761135a5f611308565b92505b6112ff836001600160401b03841661183e565b5f826113825761137f5f611308565b92505b81611393576113905f611308565b91505b6112ff83835f6118dc565b5f836113b0576113ad5f61193f565b93505b826113c1576113be5f611308565b92505b816113d2576113cf5f611308565b91505b6113dd84848461195a565b90505b9392505050565b5f826113f9576113f65f611308565b92505b8161140a576114075f611308565b91505b6112ff83835f6119b6565b5f81611427576114245f611308565b91505b6114318230611a19565b5090565b5f82611447576114445f611308565b92505b6114518383611a19565b5090919050565b5f8261146a576114675f611308565b92505b6114518383611a8d565b5f816001600160401b03165f0361148c57505f919050565b5f600261149a846001611e50565b6114a49190611e6f565b9050825b806001600160401b0316826001600160401b031610156113e05750806002816114d18187611e6f565b6114db9190611e50565b6114e59190611e6f565b91506114a8565b5f466001036114fb5750600190565b4662aa36a70361150c575061271190565b46617a690361151b57505f1990565b505f90565b5f826115325761152f5f611308565b92505b81611543576115405f611308565b91505b6112ff83835f611ad3565b5f826115605761155d5f611308565b92505b816115715761156e5f611308565b91505b6112ff83835f611b36565b5f516020611f685f395f51905f525460405163045fc19560e11b81525f915f516020611f885f395f51905f52916001600160a01b03909116906308bf832a906115cf908890339089908990600401611ec8565b6020604051808303815f875af11580156115eb573d5f5f3e3d5ffd5b505050506040513d601f19601f8201168201806040525081019061160f9190611ddd565b8154604051630f8e573b60e21b8152600481018390523360248201529193506001600160a01b031690633e395cec906044015f604051808303815f87803b158015611658575f5ffd5b505af115801561166a573d5f5f3e3d5ffd5b50505050509392505050565b5f805f516020611f885f395f51905f5280546040516382027b6d60e01b8152600481018790526001600160a01b0386811660248301529293509116906382027b6d90604401602060405180830381865afa1580156116d6573d5f5f3e3d5ffd5b505050506040513d601f19601f820116820180604052508101906116fa9190611f18565b949350505050565b5f516020611f685f395f51905f5254604051639cd07acb60e01b81525f915f516020611f885f395f51905f52916001600160a01b0390911690639cd07acb906117519087908790600401611f33565b6020604051808303815f875af115801561176d573d5f5f3e3d5ffd5b505050506040513d601f19601f820116820180604052508101906116fa9190611ddd565b5f5f82156117a45750600160f81b6117a7565b505f5b5f516020611f685f395f51905f5254604051630afe14ad60e31b81525f516020611f885f395f51905f52916001600160a01b0316906357f0a568906117f490899089908790600401611f47565b6020604051808303815f875af1158015611810573d5f5f3e3d5ffd5b505050506040513d601f19601f820116820180604052508101906118349190611ddd565b9695505050505050565b5f516020611f685f395f51905f5254604051635a53accb60e01b81525f91600160f81b915f516020611f885f395f51905f52916001600160a01b031690635a53accb9061189390889088908790600401611f47565b6020604051808303815f875af11580156118af573d5f5f3e3d5ffd5b505050506040513d601f19601f820116820180604052508101906118d39190611ddd565b95945050505050565b5f5f82156118ef5750600160f81b6118f2565b505f5b5f516020611f685f395f51905f5254604051631d44e90160e21b81525f516020611f885f395f51905f52916001600160a01b031690637513a404906117f490899089908790600401611f47565b5f6113028261194e575f611951565b60015b60ff165f611702565b5f516020611f685f395f51905f5254604051637702dcff60e01b81526004810185905260248101849052604481018390525f915f516020611f885f395f51905f52916001600160a01b0390911690637702dcff90606401611893565b5f5f82156119c95750600160f81b6119cc565b505f5b5f516020611f685f395f51905f525460405163022f65e760e31b81525f516020611f885f395f51905f52916001600160a01b03169063117b2f38906117f490899089908790600401611f47565b5f516020611f885f395f51905f528054604051635ca4b5b160e11b8152600481018590526001600160a01b0384811660248301529091169063b9496b62906044015b5f604051808303815f87803b158015611a72575f5ffd5b505af1158015611a84573d5f5f3e3d5ffd5b50505050505050565b5f516020611f885f395f51905f528054604051630f8e573b60e21b8152600481018590526001600160a01b03848116602483015290911690633e395cec90604401611a5b565b5f5f8215611ae65750600160f81b611ae9565b505f5b5f516020611f685f395f51905f5254604051631391547f60e01b81525f516020611f885f395f51905f52916001600160a01b031690631391547f906117f490899089908790600401611f47565b5f5f8215611b495750600160f81b611b4c565b505f5b5f516020611f685f395f51905f52546040516303056db360e31b81525f516020611f885f395f51905f52916001600160a01b03169063182b6d98906117f490899089908790600401611f47565b5f5f83601f840112611ba9575f5ffd5b5081356001600160401b03811115611bbf575f5ffd5b602083019150836020828501011115611bd6575f5ffd5b9250929050565b5f5f5f5f5f5f60808789031215611bf2575f5ffd5b8635955060208701356001600160401b03811115611c0e575f5ffd5b611c1a89828a01611b99565b9096509450506040870135925060608701356001600160401b03811115611c3f575f5ffd5b611c4b89828a01611b99565b979a9699509497509295939492505050565b80356001600160401b0381168114611c73575f5ffd5b919050565b5f5f60408385031215611c89575f5ffd5b611c9283611c5d565b9150611ca060208401611c5d565b90509250929050565b5f5f5f60408486031215611cbb575f5ffd5b8335925060208401356001600160401b03811115611cd7575f5ffd5b611ce386828701611b99565b9497909650939450505050565b8015158114611cfd575f5ffd5b50565b5f5f5f5f5f5f5f60a0888a031215611d16575f5ffd5b8735965060208801356001600160401b03811115611d32575f5ffd5b611d3e8a828b01611b99565b9097509550506040880135935060608801356001600160401b03811115611d63575f5ffd5b611d6f8a828b01611b99565b9094509250506080880135611d8381611cf0565b8091505092959891949750929550565b5f60208284031215611da3575f5ffd5b81356001600160a01b03811681146113e0575f5ffd5b6001600160a01b039384168152919092166020820152604081019190915260600190565b5f60208284031215611ded575f5ffd5b5051919050565b634e487b7160e01b5f52601160045260245ffd5b6001600160401b038181168382160290811690818114611e2a57611e2a611df4565b5092915050565b6001600160401b03828116828216039081111561130257611302611df4565b6001600160401b03818116838216019081111561130257611302611df4565b5f6001600160401b03831680611e9357634e487b7160e01b5f52601260045260245ffd5b806001600160401b0384160491505092915050565b60548110611ec457634e487b7160e01b5f52602160045260245ffd5b9052565b84815260018060a01b0384166020820152608060408201525f8351806080840152806020860160a085015e5f60a0828501015260a0601f19601f8301168401019150506118d36060830184611ea8565b5f60208284031215611f28575f5ffd5b81516113e081611cf0565b828152604081016113e06020830184611ea8565b92835260208301919091526001600160f81b03191660408201526060019056fe9e7b61f58c47dc699ac88507c4f5bb9f121c03808c5676a8078fe583e46497019e7b61f58c47dc699ac88507c4f5bb9f121c03808c5676a8078fe583e4649700a264697066735822122097120ddafe8a16cc3ed13bf4b13916452fdf59a48be0a1034f43f6bb40b39ed164736f6c634300081b0033",
  "linkReferences": {},
  "deployedLinkReferences": {}
}