{
  "_format": "hh-sol-artifact-1",
  "contractName": "CipherDEXFaucet",
  "sourceName": "contracts/CipherDEXFaucet.sol",
  "abi": [
    {
      "inputs": [
        {
          "internalType": "address",
          "name": "cUSDT_",
          "type": "address"
        },
        {
          "internalType": "address",
          "name": "cETH_",
          "type": "address"
        }
      ],
      "stateMutability": "nonpayable",
      "type": "constructor"
    },
    {
      "inputs": [
        {
          "internalType": "uint256",
          "name": "nextClaimAt",
          "type": "uint256"
        }
      ],
      "name": "CooldownNotExpired",
      "type": "error"
    },
    {
      "inputs": [],
      "name": "ZamaProtocolUnsupported",
      "type": "error"
    },
    {
      "anonymous": false,
      "inputs": [
        {
          "indexed": true,
          "internalType": "address",
          "name": "claimer",
          "type": "address"
        },
        {
          "indexed": false,
          "internalType": "uint256",
          "name": "timestamp",
          "type": "uint256"
        }
      ],
      "name": "Claimed",
      "type": "event"
    },
    {
      "inputs": [],
      "name": "CETH_AMOUNT",
      "outputs": [
        {
          "internalType": "uint64",
          "name": "",
          "type": "uint64"
        }
      ],
      "stateMutability": "view",
      "type": "function"
    },
    {
      "inputs": [],
      "name": "COOLDOWN",
      "outputs": [
        {
          "internalType": "uint256",
          "name": "",
          "type": "uint256"
        }
      ],
      "stateMutability": "view",
      "type": "function"
    },
    {
      "inputs": [],
      "name": "CUSDT_AMOUNT",
      "outputs": [
        {
          "internalType": "uint64",
          "name": "",
          "type": "uint64"
        }
      ],
      "stateMutability": "view",
      "type": "function"
    },
    {
      "inputs": [],
      "name": "cETH",
      "outputs": [
        {
          "internalType": "contract ConfidentialToken",
          "name": "",
          "type": "address"
        }
      ],
      "stateMutability": "view",
      "type": "function"
    },
    {
      "inputs": [],
      "name": "cUSDT",
      "outputs": [
        {
          "internalType": "contract ConfidentialToken",
          "name": "",
          "type": "address"
        }
      ],
      "stateMutability": "view",
      "type": "function"
    },
    {
      "inputs": [
        {
          "internalType": "address",
          "name": "user",
          "type": "address"
        }
      ],
      "name": "canClaim",
      "outputs": [
        {
          "internalType": "bool",
          "name": "",
          "type": "bool"
        }
      ],
      "stateMutability": "view",
      "type": "function"
    },
    {
      "inputs": [],
      "name": "claim",
      "outputs": [],
      "stateMutability": "nonpayable",
      "type": "function"
    },
    {
      "inputs": [],
      "name": "confidentialProtocolId",
      "outputs": [
        {
          "internalType": "uint256",
          "name": "",
          "type": "uint256"
        }
      ],
      "stateMutability": "view",
      "type": "function"
    },
    {
      "inputs": [
        {
          "internalType": "address",
          "name": "user",
          "type": "address"
        }
      ],
      "name": "cooldownRemaining",
      "outputs": [
        {
          "internalType": "uint256",
          "name": "",
          "type": "uint256"
        }
      ],
      "stateMutability": "view",
      "type": "function"
    },
    {
      "inputs": [
        {
          "internalType": "address",
          "name": "",
          "type": "address"
        }
      ],
      "name": "lastClaim",
      "outputs": [
        {
          "internalType": "uint256",
          "name": "",
          "type": "uint256"
        }
      ],
      "stateMutability": "view",
      "type": "function"
    }
  ],
  "bytecode": "0x608060405234801561000f575f5ffd5b5060405161075738038061075783398101604081905261002e916102dc565b6100e2610039610112565b80517f9e7b61f58c47dc699ac88507c4f5bb9f121c03808c5676a8078fe583e464970080546001600160a01b03199081166001600160a01b039384161790915560208301517f9e7b61f58c47dc699ac88507c4f5bb9f121c03808c5676a8078fe583e46497018054831691841691909117905560408301517f9e7b61f58c47dc699ac88507c4f5bb9f121c03808c5676a8078fe583e46497028054909216921691909117905550565b5f80546001600160a01b039384166001600160a01b0319918216179091556001805492909316911617905561030d565b604080516060810182525f8082526020820181905291810191909152466001036101ab575060408051606080820183525f8083526020808401829052928401528251908101835273ca2e8f1f656cd25c01f05d0b243ab1ecd4a8ffb6815273d82385dada1ae3e969447f20a3164f6213100e75918101919091527377627828a55156b04ac0dc0eb30467f1a552bb039181019190915290565b4662aa36a70361022a575060408051606080820183525f8083526020808401829052928401528251908101835273f0ffdc93b7e186bc2f8cb3daa75d86d1930a433d81527392c920834ec8941d2c77d188936e1f7a6f49c1279181019190915273be0e383937d564d7ff0bc3b46c51f0bf8d5c311a9181019190915290565b46617a69036102a8575060408051606080820183525f808352602080840182905292840152825190810183527350157cffd6bbfa2dece204a89ec419c23ef5755d815273e3a9105a3a932253a70f126eb1e3b589c643dd249181019190915273901f8942346f7ab3a01f6d7613119bca447bb0309181019190915290565b6040516373cac13b60e01b815260040160405180910390fd5b80516001600160a01b03811681146102d7575f5ffd5b919050565b5f5f604083850312156102ed575f5ffd5b6102f6836102c1565b9150610304602084016102c1565b90509250929050565b61043d8061031a5f395ff3fe608060405234801561000f575f5ffd5b506004361061009b575f3560e01c80638927b030116100635780638927b030146101365780639d82190f1461013e578063a1b4d01114610151578063a2724a4d14610164578063bf3506c11461016e575f5ffd5b80630614f2c91461009f5780631e785462146100ce57806330828efd146100f35780634e71d92d146100ff5780635c16e15e14610109575b5f5ffd5b5f546100b1906001600160a01b031681565b6040516001600160a01b0390911681526020015b60405180910390f35b6100da6402540be40081565b60405167ffffffffffffffff90911681526020016100c5565b6100da64012a05f20081565b610107610191565b005b6101286101173660046103a1565b60026020525f908152604090205481565b6040519081526020016100c5565b6101286102e6565b61012861014c3660046103a1565b6102f4565b6001546100b1906001600160a01b031681565b6101286201518081565b61018161017c3660046103a1565b61033e565b60405190151581526020016100c5565b335f908152600260205260408120546101ae9062015180906103db565b9050804210156101d857604051634263cbc360e01b81526004810182905260240160405180910390fd5b335f81815260026020526040808220429055905490516302893c5b60e41b815260048101929092526402540be40060248301526001600160a01b031690632893c5b0906044015f604051808303815f87803b158015610235575f5ffd5b505af1158015610247573d5f5f3e3d5ffd5b50506001546040516302893c5b60e41b815233600482015264012a05f20060248201526001600160a01b039091169250632893c5b091506044015f604051808303815f87803b158015610298575f5ffd5b505af11580156102aa573d5f5f3e3d5ffd5b50506040514281523392507fd8138f8a3f377c5259ca548e70e4c2de94f129f5a11036a15b69513cba2b426a915060200160405180910390a250565b5f6102ef61036d565b905090565b6001600160a01b0381165f90815260026020526040812054819061031c9062015180906103db565b905080421061032d57505f92915050565b61033742826103f4565b9392505050565b6001600160a01b0381165f908152600260205260408120546103649062015180906103db565b42101592915050565b5f4660010361037c5750600190565b4662aa36a70361038d575061271190565b46617a690361039c57505f1990565b505f90565b5f602082840312156103b1575f5ffd5b81356001600160a01b0381168114610337575f5ffd5b634e487b7160e01b5f52601160045260245ffd5b808201808211156103ee576103ee6103c7565b92915050565b818103818111156103ee576103ee6103c756fea26469706673582212205e5f641ffd60fdfd9d38968532cd3fe264d9e6c5a959aa7eac6b3077d7af3b6b64736f6c634300081b0033",
  "linkReferences": {},
  "deployedLinkReferences": {}
}