{
  "_format": "hh-sol-artifact-1",
  "contractName": "ConfidentialToken",
  "sourceName": "contracts/ConfidentialToken.sol",
  "abi": [
    {
      "inputs": [
        {
          "internalType": "string",
          "name": "name_",
          "type": "string"
        },
        {
          "internalType": "string",
          "name": "symbol_",
          "type": "string"
        },
        {
          "internalType": "uint8",
          "name": "decimals_",
          "type": "uint8"
        },
        {
          "internalType": "address",
          "name": "owner_",
          "type": "address"
        }
      ],
      "stateMutability": "nonpayable",
      "type": "constructor"
    },
    {
      "inputs": [
        {
          "internalType": "uint256",
          "name": "requestId",
          "type": "uint256"
        }
      ],
      "name": "ERC7984InvalidGatewayRequest",
      "type": "error"
    },
    {
      "inputs": [
        {
          "internalType": "address",
          "name": "receiver",
          "type": "address"
        }
      ],
      "name": "ERC7984InvalidReceiver",
      "type": "error"
    },
    {
      "inputs": [
        {
          "internalType": "address",
          "name": "sender",
          "type": "address"
        }
      ],
      "name": "ERC7984InvalidSender",
      "type": "error"
    },
    {
      "inputs": [
        {
          "internalType": "address",
          "name": "caller",
          "type": "address"
        }
      ],
      "name": "ERC7984UnauthorizedCaller",
      "type": "error"
    },
    {
      "inputs": [
        {
          "internalType": "address",
          "name": "holder",
          "type": "address"
        },
        {
          "internalType": "address",
          "name": "spender",
          "type": "address"
        }
      ],
      "name": "ERC7984UnauthorizedSpender",
      "type": "error"
    },
    {
      "inputs": [
        {
          "internalType": "euint64",
          "name": "amount",
          "type": "bytes32"
        },
        {
          "internalType": "address",
          "name": "user",
          "type": "address"
        }
      ],
      "name": "ERC7984UnauthorizedUseOfEncryptedAmount",
      "type": "error"
    },
    {
      "inputs": [
        {
          "internalType": "address",
          "name": "holder",
          "type": "address"
        }
      ],
      "name": "ERC7984ZeroBalance",
      "type": "error"
    },
    {
      "inputs": [],
      "name": "InvalidKMSSignatures",
      "type": "error"
    },
    {
      "inputs": [],
      "name": "NotOwner",
      "type": "error"
    },
    {
      "inputs": [
        {
          "internalType": "bytes32",
          "name": "handle",
          "type": "bytes32"
        },
        {
          "internalType": "address",
          "name": "sender",
          "type": "address"
        }
      ],
      "name": "SenderNotAllowedToUseHandle",
      "type": "error"
    },
    {
      "inputs": [],
      "name": "ZamaProtocolUnsupported",
      "type": "error"
    },
    {
      "anonymous": false,
      "inputs": [
        {
          "indexed": true,
          "internalType": "euint64",
          "name": "encryptedAmount",
          "type": "bytes32"
        },
        {
          "indexed": true,
          "internalType": "address",
          "name": "requester",
          "type": "address"
        }
      ],
      "name": "AmountDiscloseRequested",
      "type": "event"
    },
    {
      "anonymous": false,
      "inputs": [
        {
          "indexed": true,
          "internalType": "euint64",
          "name": "encryptedAmount",
          "type": "bytes32"
        },
        {
          "indexed": false,
          "internalType": "uint64",
          "name": "amount",
          "type": "uint64"
        }
      ],
      "name": "AmountDisclosed",
      "type": "event"
    },
    {
      "anonymous": false,
      "inputs": [
        {
          "indexed": true,
          "internalType": "address",
          "name": "from",
          "type": "address"
        },
        {
          "indexed": true,
          "internalType": "address",
          "name": "to",
          "type": "address"
        },
        {
          "indexed": true,
          "internalType": "euint64",
          "name": "amount",
          "type": "bytes32"
        }
      ],
      "name": "ConfidentialTransfer",
      "type": "event"
    },
    {
      "anonymous": false,
      "inputs": [
        {
          "indexed": true,
          "internalType": "address",
          "name": "holder",
          "type": "address"
        },
        {
          "indexed": true,
          "internalType": "address",
          "name": "operator",
          "type": "address"
        },
        {
          "indexed": false,
          "internalType": "uint48",
          "name": "until",
          "type": "uint48"
        }
      ],
      "name": "OperatorSet",
      "type": "event"
    },
    {
      "anonymous": false,
      "inputs": [
        {
          "indexed": false,
          "internalType": "bytes32[]",
          "name": "handlesList",
          "type": "bytes32[]"
        },
        {
          "indexed": false,
          "internalType": "bytes",
          "name": "abiEncodedCleartexts",
          "type": "bytes"
        }
      ],
      "name": "PublicDecryptionVerified",
      "type": "event"
    },
    {
      "inputs": [
        {
          "internalType": "address",
          "name": "account",
          "type": "address"
        }
      ],
      "name": "confidentialBalanceOf",
      "outputs": [
        {
          "internalType": "euint64",
          "name": "",
          "type": "bytes32"
        }
      ],
      "stateMutability": "view",
      "type": "function"
    },
    {
      "inputs": [],
      "name": "confidentialProtocolId",
      "outputs": [
        {
          "internalType": "uint256",
          "name": "",
          "type": "uint256"
        }
      ],
      "stateMutability": "view",
      "type": "function"
    },
    {
      "inputs": [],
      "name": "confidentialTotalSupply",
      "outputs": [
        {
          "internalType": "euint64",
          "name": "",
          "type": "bytes32"
        }
      ],
      "stateMutability": "view",
      "type": "function"
    },
    {
      "inputs": [
        {
          "internalType": "address",
          "name": "to",
          "type": "address"
        },
        {
          "internalType": "externalEuint64",
          "name": "encryptedAmount",
          "type": "bytes32"
        },
        {
          "internalType": "bytes",
          "name": "inputProof",
          "type": "bytes"
        }
      ],
      "name": "confidentialTransfer",
      "outputs": [
        {
          "internalType": "euint64",
          "name": "",
          "type": "bytes32"
        }
      ],
      "stateMutability": "nonpayable",
      "type": "function"
    },
    {
      "inputs": [
        {
          "internalType": "address",
          "name": "to",
          "type": "address"
        },
        {
          "internalType": "euint64",
          "name": "amount",
          "type": "bytes32"
        }
      ],
      "name": "confidentialTransfer",
      "outputs": [
        {
          "internalType": "euint64",
          "name": "",
          "type": "bytes32"
        }
      ],
      "stateMutability": "nonpayable",
      "type": "function"
    },
    {
      "inputs": [
        {
          "internalType": "address",
          "name": "to",
          "type": "address"
        },
        {
          "internalType": "euint64",
          "name": "amount",
          "type": "bytes32"
        },
        {
          "internalType": "bytes",
          "name": "data",
          "type": "bytes"
        }
      ],
      "name": "confidentialTransferAndCall",
      "outputs": [
        {
          "internalType": "euint64",
          "name": "transferred",
          "type": "bytes32"
        }
      ],
      "stateMutability": "nonpayable",
      "type": "function"
    },
    {
      "inputs": [
        {
          "internalType": "address",
          "name": "to",
          "type": "address"
        },
        {
          "internalType": "externalEuint64",
          "name": "encryptedAmount",
          "type": "bytes32"
        },
        {
          "internalType": "bytes",
          "name": "inputProof",
          "type": "bytes"
        },
        {
          "internalType": "bytes",
          "name": "data",
          "type": "bytes"
        }
      ],
      "name": "confidentialTransferAndCall",
      "outputs": [
        {
          "internalType": "euint64",
          "name": "transferred",
          "type": "bytes32"
        }
      ],
      "stateMutability": "nonpayable",
      "type": "function"
    },
    {
      "inputs": [
        {
          "internalType": "address",
          "name": "from",
          "type": "address"
        },
        {
          "internalType": "address",
          "name": "to",
          "type": "address"
        },
        {
          "internalType": "externalEuint64",
          "name": "encryptedAmount",
          "type": "bytes32"
        },
        {
          "internalType": "bytes",
          "name": "inputProof",
          "type": "bytes"
        }
      ],
      "name": "confidentialTransferFrom",
      "outputs": [
        {
          "internalType": "euint64",
          "name": "transferred",
          "type": "bytes32"
        }
      ],
      "stateMutability": "nonpayable",
      "type": "function"
    },
    {
      "inputs": [
        {
          "internalType": "address",
          "name": "from",
          "type": "address"
        },
        {
          "internalType": "address",
          "name": "to",
          "type": "address"
        },
        {
          "internalType": "euint64",
          "name": "amount",
          "type": "bytes32"
        }
      ],
      "name": "confidentialTransferFrom",
      "outputs": [
        {
          "internalType": "euint64",
          "name": "transferred",
          "type": "bytes32"
        }
      ],
      "stateMutability": "nonpayable",
      "type": "function"
    },
    {
      "inputs": [
        {
          "internalType": "address",
          "name": "from",
          "type": "address"
        },
        {
          "internalType": "address",
          "name": "to",
          "type": "address"
        },
        {
          "internalType": "externalEuint64",
          "name": "encryptedAmount",
          "type": "bytes32"
        },
        {
          "internalType": "bytes",
          "name": "inputProof",
          "type": "bytes"
        },
        {
          "internalType": "bytes",
          "name": "data",
          "type": "bytes"
        }
      ],
      "name": "confidentialTransferFromAndCall",
      "outputs": [
        {
          "internalType": "euint64",
          "name": "transferred",
          "type": "bytes32"
        }
      ],
      "stateMutability": "nonpayable",
      "type": "function"
    },
    {
      "inputs": [
        {
          "internalType": "address",
          "name": "from",
          "type": "address"
        },
        {
          "internalType": "address",
          "name": "to",
          "type": "address"
        },
        {
          "internalType": "euint64",
          "name": "amount",
          "type": "bytes32"
        },
        {
          "internalType": "bytes",
          "name": "data",
          "type": "bytes"
        }
      ],
      "name": "confidentialTransferFromAndCall",
      "outputs": [
        {
          "internalType": "euint64",
          "name": "transferred",
          "type": "bytes32"
        }
      ],
      "stateMutability": "nonpayable",
      "type": "function"
    },
    {
      "inputs": [],
      "name": "contractURI",
      "outputs": [
        {
          "internalType": "string",
          "name": "",
          "type": "string"
        }
      ],
      "stateMutability": "view",
      "type": "function"
    },
    {
      "inputs": [],
      "name": "decimals",
      "outputs": [
        {
          "internalType": "uint8",
          "name": "",
          "type": "uint8"
        }
      ],
      "stateMutability": "view",
      "type": "function"
    },
    {
      "inputs": [
        {
          "internalType": "euint64",
          "name": "encryptedAmount",
          "type": "bytes32"
        },
        {
          "internalType": "uint64",
          "name": "cleartextAmount",
          "type": "uint64"
        },
        {
          "internalType": "bytes",
          "name": "decryptionProof",
          "type": "bytes"
        }
      ],
      "name": "discloseEncryptedAmount",
      "outputs": [],
      "stateMutability": "nonpayable",
      "type": "function"
    },
    {
      "inputs": [
        {
          "internalType": "address",
          "name": "holder",
          "type": "address"
        },
        {
          "internalType": "address",
          "name": "spender",
          "type": "address"
        }
      ],
      "name": "isOperator",
      "outputs": [
        {
          "internalType": "bool",
          "name": "",
          "type": "bool"
        }
      ],
      "stateMutability": "view",
      "type": "function"
    },
    {
      "inputs": [
        {
          "internalType": "address",
          "name": "to",
          "type": "address"
        },
        {
          "internalType": "uint64",
          "name": "amount",
          "type": "uint64"
        }
      ],
      "name": "mint",
      "outputs": [],
      "stateMutability": "nonpayable",
      "type": "function"
    },
    {
      "inputs": [],
      "name": "name",
      "outputs": [
        {
          "internalType": "string",
          "name": "",
          "type": "string"
        }
      ],
      "stateMutability": "view",
      "type": "function"
    },
    {
      "inputs": [],
      "name": "owner",
      "outputs": [
        {
          "internalType": "address",
          "name": "",
          "type": "address"
        }
      ],
      "stateMutability": "view",
      "type": "function"
    },
    {
      "inputs": [
        {
          "internalType": "euint64",
          "name": "encryptedAmount",
          "type": "bytes32"
        }
      ],
      "name": "requestDiscloseEncryptedAmount",
      "outputs": [],
      "stateMutability": "nonpayable",
      "type": "function"
    },
    {
      "inputs": [
        {
          "internalType": "address",
          "name": "operator",
          "type": "address"
        },
        {
          "internalType": "uint48",
          "name": "until",
          "type": "uint48"
        }
      ],
      "name": "setOperator",
      "outputs": [],
      "stateMutability": "nonpayable",
      "type": "function"
    },
    {
      "inputs": [
        {
          "internalType": "bytes4",
          "name": "interfaceId",
          "type": "bytes4"
        }
      ],
      "name": "supportsInterface",
      "outputs": [
        {
          "internalType": "bool",
          "name": "",
          "type": "bool"
        }
      ],
      "stateMutability": "view",
      "type": "function"
    },
    {
      "inputs": [],
      "name": "symbol",
      "outputs": [
        {
          "internalType": "string",
          "name": "",
          "type": "string"
        }
      ],
      "stateMutability": "view",
      "type": "function"
    },
    {
      "inputs": [
        {
          "internalType": "address",
          "name": "newOwner",
          "type": "address"
        }
      ],
      "name": "transferOwnership",
      "outputs": [],
      "stateMutability": "nonpayable",
      "type": "function"
    }
  ],
  "bytecode": "0x608060405234801561000f575f5ffd5b5060405161249d38038061249d83398101604081905261002e916103b5565b838360405180602001604052805f8152506100f961005061016960201b60201c565b80517f9e7b61f58c47dc699ac88507c4f5bb9f121c03808c5676a8078fe583e464970080546001600160a01b03199081166001600160a01b039384161790915560208301517f9e7b61f58c47dc699ac88507c4f5bb9f121c03808c5676a8078fe583e46497018054831691841691909117905560408301517f9e7b61f58c47dc699ac88507c4f5bb9f121c03808c5676a8078fe583e46497028054909216921691909117905550565b600361010584826104d3565b50600461011283826104d3565b50600561011f82826104d3565b5050600680546001600160a01b039094166001600160a01b031960ff909616600160a01b02959095166001600160a81b031990941693909317939093179091555061058d92505050565b604080516060810182525f808252602082018190529181019190915246600103610202575060408051606080820183525f8083526020808401829052928401528251908101835273ca2e8f1f656cd25c01f05d0b243ab1ecd4a8ffb6815273d82385dada1ae3e969447f20a3164f6213100e75918101919091527377627828a55156b04ac0dc0eb30467f1a552bb039181019190915290565b4662aa36a703610281575060408051606080820183525f8083526020808401829052928401528251908101835273f0ffdc93b7e186bc2f8cb3daa75d86d1930a433d81527392c920834ec8941d2c77d188936e1f7a6f49c1279181019190915273be0e383937d564d7ff0bc3b46c51f0bf8d5c311a9181019190915290565b46617a69036102ff575060408051606080820183525f808352602080840182905292840152825190810183527350157cffd6bbfa2dece204a89ec419c23ef5755d815273e3a9105a3a932253a70f126eb1e3b589c643dd249181019190915273901f8942346f7ab3a01f6d7613119bca447bb0309181019190915290565b6040516373cac13b60e01b815260040160405180910390fd5b634e487b7160e01b5f52604160045260245ffd5b5f82601f83011261033b575f5ffd5b81516001600160401b0381111561035457610354610318565b604051601f8201601f19908116603f011681016001600160401b038111828210171561038257610382610318565b604052818152838201602001851015610399575f5ffd5b8160208501602083015e5f918101602001919091529392505050565b5f5f5f5f608085870312156103c8575f5ffd5b84516001600160401b038111156103dd575f5ffd5b6103e98782880161032c565b602087015190955090506001600160401b03811115610406575f5ffd5b6104128782880161032c565b935050604085015160ff81168114610428575f5ffd5b60608601519092506001600160a01b0381168114610444575f5ffd5b939692955090935050565b600181811c9082168061046357607f821691505b60208210810361048157634e487b7160e01b5f52602260045260245ffd5b50919050565b601f8211156104ce57805f5260205f20601f840160051c810160208510156104ac5750805b601f840160051c820191505b818110156104cb575f81556001016104b8565b50505b505050565b81516001600160401b038111156104ec576104ec610318565b610500816104fa845461044f565b84610487565b6020601f821160018114610532575f831561051b5750848201515b5f19600385901b1c1916600184901b1784556104cb565b5f84815260208120601f198516915b828110156105615787850151825560209485019460019092019101610541565b508482101561057e57868401515f19600387901b60f8161c191681555b50505050600190811b01905550565b611f038061059a5f395ff3fe608060405234801561000f575f5ffd5b5060043610610148575f3560e01c80638da5cb5b116100bf578063d806180611610079578063d8061806146102ce578063de642119146102e1578063e064b9bb146102f4578063e8a3d48514610307578063eb3155b51461030f578063f2fde38b14610322575f5ffd5b80638da5cb5b1461024f57806395d89b411461027a578063b1af281e14610282578063b6363cf214610295578063c7b8a75e146102a8578063d4febb96146102bb575f5ffd5b8063344ff10111610110578063344ff101146101de57806334c4574314610206578063537d3c5014610219578063540952271461022c5780635bebed7e146102345780638927b03014610247575f5ffd5b806301ffc9a71461014c57806306fdde03146101745780632893c5b0146101895780632fb74e621461019e578063313ce567146101bf575b5f5ffd5b61015f61015a366004611878565b610335565b60405190151581526020015b60405180910390f35b61017c61036b565b60405161016b91906118cd565b61019c610197366004611910565b6103fb565b005b6101b16101ac366004611975565b610457565b60405190815260200161016b565b600654600160a01b900460ff1660405160ff909116815260200161016b565b6101b16101ec3660046119ca565b6001600160a01b03165f9081526020819052604090205490565b6101b16102143660046119e3565b6104aa565b6101b1610227366004611975565b610553565b6002546101b1565b6101b1610242366004611a7a565b6105b5565b6101b1610607565b600654610262906001600160a01b031681565b6040516001600160a01b03909116815260200161016b565b61017c610615565b61019c610290366004611aa2565b610624565b61015f6102a3366004611adf565b610717565b6101b16102b6366004611b07565b610769565b61019c6102c9366004611b70565b61080c565b61019c6102dc366004611baf565b61081b565b6101b16102ef366004611bc6565b610893565b6101b1610302366004611b07565b6108ef565b61017c610974565b6101b161031d366004611c4d565b610983565b61019c6103303660046119ca565b610a22565b5f6001600160e01b031982166312563ca960e21b148061036557506301ffc9a760e01b6001600160e01b03198316145b92915050565b60606003805461037a90611c87565b80601f01602080910402602001604051908101604052809291908181526020018280546103a690611c87565b80156103f15780601f106103c8576101008083540402835291602001916103f1565b820191905f5260205f20905b8154815290600101906020018083116103d457829003601f168201915b5050505050905090565b6006546001600160a01b03163314610426576040516330cd747160e01b815260040160405180910390fd5b5f61043082610a6f565b905061043b81610a84565b506104468184610aa4565b506104518382610ac7565b50505050565b5f6104a1338661049c8787878080601f0160208091040260200160405190810160405280939291908181526020018383808284375f92019190915250610b0892505050565b610b6e565b95945050505050565b5f6104b58833610717565b883390916104ee57604051630f3e596760e31b81526001600160a01b039283166004820152911660248201526044015b60405180910390fd5b505061053b88886105348989898080601f0160208091040260200160405190810160405280939291908181526020018383808284375f92019190915250610b0892505050565b8686610bec565b90506105478133610c43565b50979650505050505050565b5f61055e8433610c5f565b84339091610591576040516367cfe80560e01b815260048101929092526001600160a01b031660248201526044016104e5565b50506105a03386868686610bec565b90506105ac8133610c43565b50949350505050565b5f6105c08233610c5f565b823390916105f3576040516367cfe80560e01b815260048101929092526001600160a01b031660248201526044016104e5565b5050610600338484610b6e565b9392505050565b5f610610610c6a565b905090565b60606004805461037a90611c87565b6040805160018082528183019092525f916020808301908036833701905050905084815f8151811061065857610658611cbf565b6020026020010181815250505f8460405160200161068591906001600160401b0391909116815260200190565b60408051601f198184030181526020601f870181900481028401810190925285835292506106d191849184919088908890819084018382808284375f92019190915250610c9e92505050565b6040516001600160401b038616815286907f83bbbc07896439e5d950a6cead04cbc676180af7a61cecf43f5296475057f5719060200160405180910390a2505050505050565b5f816001600160a01b0316836001600160a01b031614806106005750506001600160a01b039182165f90815260016020908152604080832093909416825291909152205465ffffffffffff1642111590565b5f6107748433610c5f565b843390916107a7576040516367cfe80560e01b815260048101929092526001600160a01b031660248201526044016104e5565b50506107b38633610717565b863390916107e757604051630f3e596760e31b81526001600160a01b039283166004820152911660248201526044016104e5565b50506107f68686868686610bec565b90506108028133610c43565b5095945050505050565b610817338383610d09565b5050565b6108258133610c5f565b81339091610858576040516367cfe80560e01b815260048101929092526001600160a01b031660248201526044016104e5565b505061086381610d80565b50604051339082907f189c3bfae2e5ce7726b29d57bb6ed0f1a7ebcd153a863ff5ecb6cd998064c98c905f90a350565b5f6108d833886105348989898080601f0160208091040260200160405190810160405280939291908181526020018383808284375f92019190915250610b0892505050565b90506108e48133610c43565b509695505050505050565b5f6108fa8633610717565b8633909161092e57604051630f3e596760e31b81526001600160a01b039283166004820152911660248201526044016104e5565b50506107f6868661049c8787878080601f0160208091040260200160405190810160405280939291908181526020018383808284375f92019190915250610b0892505050565b60606005805461037a90611c87565b5f61098e8233610c5f565b823390916109c1576040516367cfe80560e01b815260048101929092526001600160a01b031660248201526044016104e5565b50506109cd8433610717565b84339091610a0157604051630f3e596760e31b81526001600160a01b039283166004820152911660248201526044016104e5565b5050610a0e848484610b6e565b9050610a1a8133610c43565b509392505050565b6006546001600160a01b03163314610a4d576040516330cd747160e01b815260040160405180910390fd5b600680546001600160a01b0319166001600160a01b0392909216919091179055565b5f610365826001600160401b03166005610d9b565b5f81610a9657610a935f610a6f565b91505b610aa08230610e2a565b5090565b5f82610ab657610ab35f610a6f565b92505b610ac08383610e2a565b5090919050565b5f806001600160a01b038416610afc57604051638d51880160e01b81526001600160a01b0390911660048201526024016104e5565b506106005f8484610e9e565b5f81515f14610b2457610b1d8383600561107b565b9050610365565b825f819003610b3e57610b365f610a6f565b915050610365565b610b488133611175565b610b1d57604051630276b5d960e01b8152600481018290523360248201526044016104e5565b5f806001600160a01b038516610ba35760405163ee457ebf60e01b81526001600160a01b0390911660048201526024016104e5565b505f6001600160a01b038416610bd857604051638d51880160e01b81526001600160a01b0390911660048201526024016104e5565b50610be4848484610e9e565b949350505050565b5f5f610bf9878787610b6e565b90505f610c0a3389898589896111f9565b90505f610c2a888a610c2585610c1f5f610a6f565b886112fd565b610e9e565b9050610c36838261133c565b9998505050505050505050565b5f82610c5557610c525f610a6f565b92505b610ac0838361136a565b5f6106008383611175565b5f46600103610c795750600190565b4662aa36a703610c8a575061271190565b46617a6903610c9957505f1990565b505f90565b5f610caa8484846113b0565b905080610cca5760405163cf6c44e960e01b815260040160405180910390fd5b7fc6366bab028b8d033cb362cfd1f2f3457ef4e92fc738b6788b90d5a7846367a08484604051610cfb929190611d0d565b60405180910390a150505050565b6001600160a01b038381165f81815260016020908152604080832094871680845294825291829020805465ffffffffffff191665ffffffffffff871690811790915591519182527f921a218a75d18e8ec5704851e6b234a85725b21a2521ce889622c35dedc1fa12910160405180910390a3505050565b5f81610d9257610d8f5f610a6f565b91505b610aa082611454565b5f516020611e8e5f395f51905f5254604051639cd07acb60e01b81525f915f516020611eae5f395f51905f52916001600160a01b0390911690639cd07acb90610dea9087908790600401611d51565b6020604051808303815f875af1158015610e06573d5f5f3e3d5ffd5b505050506040513d601f19601f82011682018060405250810190610be49190611d65565b5f516020611eae5f395f51905f528054604051635ca4b5b160e11b8152600481018590526001600160a01b0384811660248301529091169063b9496b62906044015b5f604051808303815f87803b158015610e83575f5ffd5b505af1158015610e95573d5f5f3e3d5ffd5b50505050505050565b5f80806001600160a01b038616610ed457610ebb600254856114d2565b9092509050610ec981610a84565b506002819055610f58565b6001600160a01b0386165f908152602081905260409020548681610f17576040516317fe473760e21b81526001600160a01b0390911660048201526024016104e5565b50610f22818661151c565b9093509150610f3082610a84565b50610f3b8288610aa4565b50506001600160a01b0386165f9081526020819052604090208190555b610f6b8285610f665f610a6f565b6112fd565b92506001600160a01b038516610f9d57610f876002548461133c565b9050610f9281610a84565b506002819055610ff1565b6001600160a01b0385165f90815260208190526040902054610fbf9084611581565b9050610fca81610a84565b50610fd58186610aa4565b506001600160a01b0385165f9081526020819052604090208190555b6001600160a01b0386161561100c5761100a8387610aa4565b505b6001600160a01b03851615611027576110258386610aa4565b505b61103083610a84565b5082856001600160a01b0316876001600160a01b03167f67500e8d0ed826d2194f514dd0d8124f35648ab6e3fb5e6ed867134cffe661e960405160405180910390a450509392505050565b5f516020611e8e5f395f51905f525460405163045fc19560e11b81525f915f516020611eae5f395f51905f52916001600160a01b03909116906308bf832a906110ce908890339089908990600401611d7c565b6020604051808303815f875af11580156110ea573d5f5f3e3d5ffd5b505050506040513d601f19601f8201168201806040525081019061110e9190611d65565b8154604051630f8e573b60e21b8152600481018390523360248201529193506001600160a01b031690633e395cec906044015f604051808303815f87803b158015611157575f5ffd5b505af1158015611169573d5f5f3e3d5ffd5b50505050509392505050565b5f805f516020611eae5f395f51905f5280546040516382027b6d60e01b8152600481018790526001600160a01b0386811660248301529293509116906382027b6d90604401602060405180830381865afa1580156111d5573d5f5f3e3d5ffd5b505050506040513d601f19601f82011682018060405250810190610be49190611db4565b5f6001600160a01b0385163b156112e6576040516346083bfd60e01b81526001600160a01b038616906346083bfd9061123e908a908a90899089908990600401611dd3565b6020604051808303815f875af1925050508015611278575060408051601f3d908101601f1916820190925261127591810190611d65565b60015b6112df573d8080156112a5576040519150601f19603f3d011682016040523d82523d5f602084013e6112aa565b606091505b5080515f036112d757604051638d51880160e01b81526001600160a01b03871660048201526024016104e5565b805181602001fd5b90506112f3565b6112f060016115af565b90505b9695505050505050565b5f8361130f5761130c5f6115af565b93505b826113205761131d5f610a6f565b92505b816113315761132e5f610a6f565b91505b610be48484846115ca565b5f8261134e5761134b5f610a6f565b92505b8161135f5761135c5f610a6f565b91505b61060083835f611657565b5f516020611eae5f395f51905f528054604051630f8e573b60e21b8152600481018590526001600160a01b03848116602483015290911690633e395cec90604401610e6c565b7f9e7b61f58c47dc699ac88507c4f5bb9f121c03808c5676a8078fe583e4649702546040516378542ead60e01b81525f915f516020611eae5f395f51905f52916001600160a01b03909116906378542ead9061141490889088908890600401611e23565b6020604051808303815f875af1158015611430573d5f5f3e3d5ffd5b505050506040513d601f19601f820116820180604052508101906104a19190611db4565b6040805160018082528183019092525f516020611eae5f395f51905f52915f91906020808301908036833701905050905082815f8151811061149857611498611cbf565b60209081029190910101528154604051637d6e912360e11b81526001600160a01b039091169063fadd224690610e6c908490600401611e5b565b5f80836114ed576114e360016115af565b8391509150611515565b5f6114f88585611581565b905061150481866116fa565b92506115118382876112fd565b9150505b9250929050565b5f8083611558578261153c5761153260016115af565b8491509150611515565b611546835f611728565b61154f5f610a6f565b91509150611515565b61156284846116fa565b915061157882611572868661133c565b866112fd565b90509250929050565b5f82611593576115905f610a6f565b92505b816115a4576115a15f610a6f565b91505b61060083835f61174f565b5f610365826115be575f6115c1565b60015b60ff165f610d9b565b5f805f516020611eae5f395f51905f526001810154604051637702dcff60e01b81526004810188905260248101879052604481018690529192506001600160a01b031690637702dcff906064016020604051808303815f875af1158015611633573d5f5f3e3d5ffd5b505050506040513d601f19601f820116820180604052508101906104a19190611d65565b5f5f821561166a5750600160f81b61166d565b505f5b5f516020611e8e5f395f51905f52546040516303056db360e31b81525f516020611eae5f395f51905f52916001600160a01b03169063182b6d98906116ba90899089908790600401611e6d565b6020604051808303815f875af11580156116d6573d5f5f3e3d5ffd5b505050506040513d601f19601f820116820180604052508101906112f39190611d65565b5f8261170c576117095f610a6f565b92505b8161171d5761171a5f610a6f565b91505b61060083835f6117b2565b5f8261173a576117375f610a6f565b92505b610600836001600160401b0384166001611815565b5f5f82156117625750600160f81b611765565b505f5b5f516020611e8e5f395f51905f525460405163022f65e760e31b81525f516020611eae5f395f51905f52916001600160a01b03169063117b2f38906116ba90899089908790600401611e6d565b5f5f82156117c55750600160f81b6117c8565b505f5b5f516020611e8e5f395f51905f5254604051631391547f60e01b81525f516020611eae5f395f51905f52916001600160a01b031690631391547f906116ba90899089908790600401611e6d565b5f5f82156118285750600160f81b61182b565b505f5b5f516020611e8e5f395f51905f525460405163f77f3f1d60e01b81525f516020611eae5f395f51905f52916001600160a01b03169063f77f3f1d906116ba90899089908790600401611e6d565b5f60208284031215611888575f5ffd5b81356001600160e01b031981168114610600575f5ffd5b5f81518084528060208401602086015e5f602082860101526020601f19601f83011685010191505092915050565b602081525f610600602083018461189f565b80356001600160a01b03811681146118f5575f5ffd5b919050565b80356001600160401b03811681146118f5575f5ffd5b5f5f60408385031215611921575f5ffd5b61192a836118df565b9150611578602084016118fa565b5f5f83601f840112611948575f5ffd5b5081356001600160401b0381111561195e575f5ffd5b602083019150836020828501011115611515575f5ffd5b5f5f5f5f60608587031215611988575f5ffd5b611991856118df565b93506020850135925060408501356001600160401b038111156119b2575f5ffd5b6119be87828801611938565b95989497509550505050565b5f602082840312156119da575f5ffd5b610600826118df565b5f5f5f5f5f5f5f60a0888a0312156119f9575f5ffd5b611a02886118df565b9650611a10602089016118df565b95506040880135945060608801356001600160401b03811115611a31575f5ffd5b611a3d8a828b01611938565b90955093505060808801356001600160401b03811115611a5b575f5ffd5b611a678a828b01611938565b989b979a50959850939692959293505050565b5f5f60408385031215611a8b575f5ffd5b611a94836118df565b946020939093013593505050565b5f5f5f5f60608587031215611ab5575f5ffd5b84359350611ac5602086016118fa565b925060408501356001600160401b038111156119b2575f5ffd5b5f5f60408385031215611af0575f5ffd5b611af9836118df565b9150611578602084016118df565b5f5f5f5f5f60808688031215611b1b575f5ffd5b611b24866118df565b9450611b32602087016118df565b93506040860135925060608601356001600160401b03811115611b53575f5ffd5b611b5f88828901611938565b969995985093965092949392505050565b5f5f60408385031215611b81575f5ffd5b611b8a836118df565b9150602083013565ffffffffffff81168114611ba4575f5ffd5b809150509250929050565b5f60208284031215611bbf575f5ffd5b5035919050565b5f5f5f5f5f5f60808789031215611bdb575f5ffd5b611be4876118df565b95506020870135945060408701356001600160401b03811115611c05575f5ffd5b611c1189828a01611938565b90955093505060608701356001600160401b03811115611c2f575f5ffd5b611c3b89828a01611938565b979a9699509497509295939492505050565b5f5f5f60608486031215611c5f575f5ffd5b611c68846118df565b9250611c76602085016118df565b929592945050506040919091013590565b600181811c90821680611c9b57607f821691505b602082108103611cb957634e487b7160e01b5f52602260045260245ffd5b50919050565b634e487b7160e01b5f52603260045260245ffd5b5f8151808452602084019350602083015f5b82811015611d03578151865260209586019590910190600101611ce5565b5093949350505050565b604081525f611d1f6040830185611cd3565b82810360208401526104a1818561189f565b60548110611d4d57634e487b7160e01b5f52602160045260245ffd5b9052565b828152604081016106006020830184611d31565b5f60208284031215611d75575f5ffd5b5051919050565b8481526001600160a01b03841660208201526080604082018190525f90611da59083018561189f565b90506104a16060830184611d31565b5f60208284031215611dc4575f5ffd5b81518015158114610600575f5ffd5b6001600160a01b03868116825285166020820152604081018490526080606082018190528101829052818360a08301375f81830160a090810191909152601f909201601f19160101949350505050565b606081525f611e356060830186611cd3565b8281036020840152611e47818661189f565b905082810360408401526112f3818561189f565b602081525f6106006020830184611cd3565b92835260208301919091526001600160f81b03191660408201526060019056fe9e7b61f58c47dc699ac88507c4f5bb9f121c03808c5676a8078fe583e46497019e7b61f58c47dc699ac88507c4f5bb9f121c03808c5676a8078fe583e4649700a26469706673582212204ec4b02eb390dddff9c6d228e2ad76cb519bca778002acc9ca3c6934728de17064736f6c634300081b0033",
  "linkReferences": {},
  "deployedLinkReferences": {}
}